:020000040000fa
:080000004002040000000000b2
:020000040000fa
:10000800101d0000101c0000141c0000181c00002b
:100018001c1c0000101d0000101d0000101d000019
:10002800201c0000241c0000281c00002c1c0000c0
:10003800101d0000301c0000341c0000381c00009b
:100048003c1c0000401c0000441c00002202000070
:100058002c020000501c0000101d0000101d0000a4
:10006800541c0000581c00005c1c0000601c0000b0
:10007800641c0000101d0000681c00006c1c0000bf
:10008800101d0000701c0000741c000036020000e7
:100098007c1c0000801c0000841c0000881c0000e0
:1000a8008c1c0000901c0000101d0000101d00009a
:1000b800101d0000941c0000981c00009c1c0000ef
:1000c800a01c0000a41c0000a81c0000ac1c000020
:1000d800b01c0000b41c0000101d0000101d000022
:1000e800101d0000b81c0000bc1c0000101d000002
:1000f800101d0000c01c0000c41c0000101d0000e2
:10010800101d0000101d0000101d0000101d000033
:10011800101d0000101d0000c81c0000101d00006c
:10012800101d0000cc1c0000d01c0000d41c0000d6
:10013800101d0000101d0000101d0000101d000003
:10014800d81c0000101d0000101d0000101d00002c
:10015800101d0000dc1c0000101d0000101d000018
:10016800101d0000e01c0000e41c0000e81c00005a
:10017800ec1c0000f01c0000101d0000f41c000026
:10018800f81c0000fc1c0000001d0000041d0000fd
:10019800081d00000c1d0000ffffff00ffffff000f
:1001a800ffffff00ffffff00ffffff00ffffff0053
:1001b800ffffff00ffffff00ffffff00ffffff0043
:1001c800ffffff00ffffff00ffffff00ffffff0033
:1001d800ffffff00ffffff00ffffff00ffffff0023
:1001e800ffffff00ffffff00ffffff00ffffff0013
:0801f800ffffff00ffffff0005
:020000040000fa
:1002080006040000060400000604000006040000be
:1002180006040000060400000604000006040000ae
:10022800060400000604000006040000060400009e
:10023800060400000604000006040000060400008e
:100248000604000006040000060400003403000051
:10025800ce030000060400000604000006040000a7
:10026800060400000604000006040000060400005e
:10027800060400000604000006040000060400004e
:1002880006040000060400000604000066170000cb
:10029800060400000604000006040000060400002e
:1002a800060400000604000006040000060400001e
:1002b800060400000604000006040000060400000e
:1002c80006040000060400000604000006040000fe
:1002d80006040000060400000604000006040000ee
:1002e80006040000060400000604000006040000de
:1002f80006040000060400000604000006040000ce
:1003080006040000060400000604000006040000bd
:1003180006040000060400000604000006040000ad
:10032800060400000604000006040000060400009d
:10033800060400000604000006040000060400008d
:10034800060400000604000006040000060400007d
:10035800060400000604000006040000060400006d
:10036800060400000604000006040000060400005d
:10037800060400000604000006040000060400004d
:10038800060400000604000006040000060400003d
:10039800060400000604000006040000060400002d
:1003a800060400000604000006040000060400001d
:1003b800060400000604000006040000060400000d
:1003c80006040000060400000604000006040000fd
:1003d80006040000060400000604000006040000ed
:1003e80006040000060400000604000006040000dd
:0803f8000604000006040000e9
:020000040000fa
:10040000001c0000faab0200000000000c1c000001
:10041000faab020000ac020000000000001c00006b
:10042000001c00000c1c0000feab020000ac02002f
:10043000faab020009000000007e0000ad7300006e
:100440007f3f00005008af00481c0400000000007f
:1004500034030400000000005028af004c1c0400ce
:1004600000000000ce030400000000005048af0070
:10047000781c040000000000661704000000000063
:100480000f9720000e7f24000e018800000000005e
:10049000000020000000e000020032000001200007
:1004a0002002880014000700f70007000000e000a9
:1004b00003003a00005f2100010020000200370025
:1004c0000000200001002000810f700001003200b8
:1004d00014000700000020000000e00002003200cd
:1004e00000000200000000008e0902000000000071
:1004f0000040da000000fe004440a9008001200016
:100500000000e0000300320000002000a00188008d
:100510004440a800000006008a1f78008b1f780066
:100520000000060091018800800478000000eb00c4
:100530001a003700e284440032a0b4009905ba00e2
:10054000e284440032a0b4009906ba00e284440078
:1005500032a0b4000006eb00476fde00fd07b200da
:10056000636ce10003003a00ebff07000000eb00c2
:100570000a003700606ce10004003a00005deb0007
:100580008b05e900fdff3e00040037006168e100d3
:10059000010032000086eb000b00070019c7ba000b
:1005a0001905ba000e04e00003003a000a00e0005a
:1005b000e0ff3a0000000600fe07b2009e0188003e
:1005c0008a047800f5ff3700395dba008b05e90031
:1005d0000c003200295dba008b05e90008003200ea
:1005e0000c00e00003003a00e284440032a0b400b2
:1005f000f5ff370019ddba008b05e900faff3a0074
:100600008904e800e184440032a0b4000000060040
:10061000d20a040000000000180b040000000000d3
:100620006617040000000000301304000000000002
:1006300062120400000000008e1704000000000099
:10064000d813040000000000340304000000000080
:10065000ce030400000000000000040000000000c1
:100660007211040000000000809fbe00829fbe0047
:10067000849fbe000800fa00200020008560a900c9
:100680003c00370032118000111180000118a300d6
:10069000020032002222a9000040a0000128a3008d
:1006a000010032000050a0000138a3000100320018
:1006b0000060a000d1342400c1bf9f005105250077
:1006c000d1bf9f0081342400e1bf9f005120b000c2
:1006d000f1bf9f00a34a8000e7816100e8825700d4
:1006e00065c27900844f51000a003a008300e80097
:1006f000a14a8800e88f50000d003a000070a00069
:10070000c1922000214388000194200031438800d9
:10071000070037008001eb00a34a88008ff997009b
:10072000834f510002003a0011002000a14a8800c6
:100730006149800023932000938f5000020039000c
:100740000040a0000b0037007149800082587800fb
:1007500071498800a249800093014100838f5000b5
:10076000010039007249880012002000c192200067
:10077000910841002202ab00c2ff3a00f14980001b
:1007800000807000f04988000080fa004f02be002f
:100790004f01be004f00be0000400600809fbe001b
:1007a000821f78008580a90013003700004a80006e
:1007b0000000e00012003200204a8000b080fb0000
:1007c00021118800204a8800414a8000629420005c
:1007d00012814000820f500001003900214a880038
:1007e000110020000094200010881000904a800022
:1007f0000000a000904a88002322ab00ebff3200eb
:100800004f0178004f00be00004006000040da00b3
:100810000000fe00889fbe008a1f78000004be0012
:1008200002057800000020000000e0000400320013
:100830000a0178000800be0000000200000000006d
:10084000e10f540001003a00d84a80000a01780004
:100850000800be006c140200000000004f05780084
:100860004f04be0000000600810178000000e00097
:1008700001003a00e04a8000800078000300780020
:10088000d012040000000000000005006022b80043
:10089000060220000000d0008180d2000482d20035
:1008a0008582d2000000a0000202520083825a001a
:1008b000030031000202420083824a000000a100ce
:1008c0000603e900f3ff3a00000006004cb5000003
:1008d00007030000575f0000163e000001c2000041
:1008e000dd960000a62100007fcd000000c20000c0
:1008f000010000000000000000000000cf05b00073
:10090000889fbe008a9fbe008c9fbe008e1f78000d
:1009100000057800204380000000e00002003a005b
:10092000000d78006902370002c02100030020009a
:10093000d28f9f00e38f9f000204be008005eb0072
:1009400021438000110778001a0178008001eb0034
:10095000e80f5100e08f590054023e000260010090
:100960000800370033003700bf003700e5003700cc
:100970001a01370077013700a7013700d00137008f
:10098000eb013700f0022000800f57004e023600c6
:1009900002032000e0fb2f000f004000cc120200f9
:1009a00000000000e0fb2f000f0040000006eb00fd
:1009b0003041780021c4b300814f510011003a004a
:1009c0009040900021c3b200c3c4b30090c169003d
:1009d00083c07000a041900002c1690082c0700015
:1009e00008003a0031438000110178000000eb005c
:1009f000d0120200000000001d0020000d0d780044
:100a0000050037000c06e800c1022000810f5600e7
:100a1000e7ff3a008006eb000c01780021438000dc
:100a20000000eb00d01202000000000013002000c4
:100a3000de0137008001eb008006eb00f0022000b1
:100a4000800f5700d901360002032000e0fb2f0081
:100a50000f004000d012020000000000030320003d
:100a6000e2fb2f000f0141006000b800fa14020001
:100a700000000000400d9800510d98001fa0970045
:100a8000afa097008002b1000180b100200d980056
:100a9000310d98001c0020004c159800e0fb2f0041
:100aa0000f004000e80040000201200060462800de
:100ab000b2180200000000000000e0000600320052
:100ac000a0fe2f004015980080002000000d780047
:100ad0008c017800b5013700e40645003fa8970077
:100ae000cfa897005fa99700efa99700809ebe004e
:100af0008296be00240120008000eb000801be00a9
:100b0000c0fa2f000f004000241402000000000073
:100b1000000020000000e00004003200d02c210082
:100b2000ef989700808f500004003200e0fd2f0006
:100b30000f00400074815700140037002a02900013
:100b4000ba0290004a039000da0390006f90970079
:100b5000ff9097000f9997009f9997000020e10060
:100b600001a8e10002b0e10003b8e100efff3100ad
:100b700090fe2f004015980070002000000d7800b6
:100b80008c0178008306780088013700ffa8970061
:100b9000d0807000f1af9f00820f5000fbff3a0041
:100ba0000100e000e9003a0080b120000000e00010
:100bb0000d0032002a099000ba0990000204b0002a
:100bc0000380b0000d027800314380002043800094
:100bd000180b0200000000000000e00002003c00d2
:100be00050fe2f00ff003700bb4a80000b00e000e2
:100bf0001200320040092000420a2000000151008a
:100c00008000eb001e190200000000005028ef00d9
:100c10005228ef000000eb00b04a8800d418020010
:100c200000000000204380005e160200000000006b
:100c3000304380005e160200000000000000eb0060
:100c4000301598006011b800620d9800730d98007f
:100c50000080eb001015980080002000100598001f
:100c600020002000000d7800304380001000e000dc
:100c700007003a0031f12f00c18f9f0022002000b1
:100c800081f92f008f8040006c14020000000000ea
:100c90000b00e000010032000060fe001a0090002e
:100ca0006808b400703eb100ea08900001004000fe
:100cb00040438800600220000a0040008a0d0200c4
:100cc0000000000000067800130020008006eb0002
:100cd0000c00e00035013a0010f12f00c08f9f009a
:100ce0002200200081f92f008f80400030438000d7
:100cf0006c14020000000000204380001007780000
:100d00002c15980040002000000d78002a08900063
:100d1000ba08900043022000830f5000e08f580073
:100d200006003e00400220003015980060002000c0
:100d30001005980013002000290037006a09900070
:100d4000fa099000e00f5100e08f590006003a00c8
:100d50008000200030159800300020001005980019
:100d6000130020001e003700f03d20006828b4006a
:100d70002001200030159800800f57000100360038
:100d80003e159800ba10900000032000808f50009c
:100d900001003600301598003a1390006132b80017
:100da000820f5200838f5a00030039006a089000b6
:100db000301598000500370062002000110009007e
:100dc0000283d80001005300301598005000200025
:100dd0001005980013002000010037008001eb008f
:100de0002a609000e84f40000b003a002a10900063
:100df0002a0a9000ba0a90006103b800840f5300d9
:100e0000858f5b0001003600040078008006eb004f
:100e10008e0f5000e5003a00020220000200e000c0
:100e20002100320030438000b000900090805000dc
:100e3000e58f50001c00360021438000b100900077
:100e4000810f510001003600010178002a12900044
:100e500084805000828f5000030031003a119000ce
:100e6000840f510010003600f3cf500001003a000b
:100e70008100e9004809de00f34f510001003a000b
:100e80000110b1000482400024159800c18f9f001a
:100e90002200200081f92f008f8040006c14020096
:100ea00000000000130020003a1190008006eb00c3
:100eb000820f5700bd0039002a1090000200500038
:100ec000201598002a0e9000ba0e90002143800051
:100ed000e0fb2f000f004000d012020000000000d5
:100ee00000065600e0865e002c0d98003d0d98002f
:100ef000ba119000e2fb2f000f0141004a08900058
:100f0000da089000fa14020000000000400d98007a
:100f1000510d98001a009000000d7800e30f50006a
:100f2000a0003a007c0045003a119000e1fb2f0040
:100f30008f8040002418020000000000fa58900042
:100f40003a60900000c0700096003200b0fe2f00a2
:100f5000240037000b00e000010032000060fe00ba
:100f60000003eb006022b800ba119000e2fb2f00f2
:100f70000f0141000a1090009a109000440b0200eb
:100f8000000000000006be00e4f92f000f0242003e
:100f9000ba119000e2fb2f000f0141000a109000ef
:100fa0009a1090006a0e0200000000000c159800d4
:100fb0001d159800ba1090006a099000fa09900077
:100fc00001015100e0815900620d9800730d9800f5
:100fd00031002000010d78000000e00007003d0016
:100fe00080fe2f004015980070002000000d780052
:100ff00013002000830678006c0037000000e0003a
:101000006800320070fe2f00401598001300200089
:101010008306780065003700f03d20006828b400a2
:101020004a099000da099000c0f12d004114220015
:10103000800f5100818f59001e003a00d02c2100f2
:10104000e09f9f002a009000ba0090004a019000a3
:10105000da019000e0979f00f1979f00829f9f0028
:10106000939f9f005fa89700efa897007fa9970024
:101070008fb19700a09f9f00b19f9f00c29f9f00cc
:10108000d39f9f000003eb00d5ea2d000002eb0088
:1010900023012000c2fa2f000f0141000800be000a
:1010a000440b02000000000096180200000000003f
:1010b0000200370060fe2f00401598006428ef0002
:1010c0006828ef0080002000000d78004a10900092
:1010d000cf80de00c000dd0000002000d08f9f0028
:1010e000e18f9f0042002000a1f92f008f80400077
:1010f000304380006c14020000000000a242800017
:10110000b342800030438000b414020000000000ad
:10111000a00f2000614380000008b80016170200ed
:101120000000000013002000830678001f00370035
:101130008001eb008006eb000e00e0001b00320097
:101140002a099000ba0990006172b800820f52001b
:10115000838f5a0005003900020778000000eb0079
:10116000d0120200000000006428ef000e01780099
:10117000214380000000eb00d012020000000000bc
:101180002a089000ba0890000e005000e080580035
:10119000200d9800310d9800130020008006eb0010
:1011a000020037001300200083067800f3b79f0089
:1011b0003e170200000000000002be00ffb19700d1
:1011c0000300e00002003200000d9800110d9800ad
:1011d0000a0990009a0990000201520083815a0086
:1011e0006a009000fa009000800f5100818f590032
:1011f00021003600c0fe2f00401598001a80e9003b
:10120000e30f500018003e0000002000c1fe2f0038
:10121000d08f9f00e18f9f0042002000a1f92f0096
:101220008f80400030438000f4b79f0085bf9f004f
:101230006c14020000000000a2428000b342800053
:1012400030438000b4140200000000000081eb0075
:10125000214380000000eb00d012020000000000db
:101260008fba97007fb29700040d9800150d980073
:10127000000deb006428ef00204380000000e00038
:10128000030032008b867600adfd3a00090037007e
:101290000b00e000060032006a019000fa019000a5
:1012a00030438000b4140200000000000000fe0083
:1012b000000deb0000f0a7000000ea000000e900cc
:1012c0004f00de00010037000000eb004f07780000
:1012d0004f06be004f05be004f04be00cf05b10053
:1012e000000006000000fa00590607000000e000b8
:1012f000070032000201fc00609520000088eb002e
:101300000c1c0200000000000000fe00010037007d
:10131000000000000080fa00000006001000fa0043
:101320005629ef006828ef006428ef005e28ef00e0
:101330005028ef005228ef007f0107000000eb006b
:1013400010478800013a80000004200000806000ff
:101350000000e0000e003a00c0428000d142800050
:101360006509b900020178006002b90084017800c3
:1013700003014100530020000300b80001014100b7
:10138000820078007047880081478800030037009a
:101390006000b8007047880081478800a242800042
:1013a000b34280004518dd00cb10de0081007000e4
:1013b0004510dd0040079800510798004e0090004e
:1013c000de0090006011b8006022b8006033b80001
:1013d0000000520081805a0002015b0083815b00a3
:1013e0000203be000002be0021ad2000e08c200000
:1013f000c9040700a106070060079800710798005c
:101400006e019000fe019000028fbe006e01900000
:10141000fe01900022079800330798000060fe004c
:101420009606070060079800710798006e0190000b
:10143000fe0190002e009000be00900000015100bf
:1014400081815900c0428000d14280004c0add00f9
:101450004400de0000007200c408de00800f51006e
:10146000818f59001c003600c0428000d1428000ac
:101470004c09dd004400de0000007100c408de00fd
:101480002e019000be0190000200400083804800c1
:101490002007980031079800e1168000000820001e
:1014a0000080600000f0a7000000ea000000e900f2
:1014b0004f00de00004078000080fb00610060000b
:1014c0004700dd00e2168000f1f72f008100610087
:1014d00001007000e0168800e042800010089000d3
:1014e0000000e00006003200e04280008000eb00d7
:1014f000110898006e019000fe019000028fbe005e
:101500006e009000fe0090003e015000ae81580039
:101510007047800081478000800f5100818f590003
:101520001e003600b0238400c1238400e00f500069
:10153000e08f580009003c00204380000000e000dc
:1015400006003a00b0238400c1238400e4428000f6
:101550000001be0004007800a1030700bc050700dd
:101560000000e0000d003200dce2a900410a20008a
:101570004009200000805000000178008000eb004e
:10158000400920002d07070050a8ef0052a8ef00e7
:101590006028ef006268ef0052ff07000140fe0084
:1015a0009eff37000000fa00b0238400c1238400ae
:1015b000e00f5000e08f58000c003c00e04280003b
:1015c0009008900000062000008060000000e0000d
:1015d00006003200b0238400c1238400e44280006e
:1015e0000001be00040078007d0307002043800056
:1015f0000000e00002003a000000eb000a003700a3
:10160000208e2000bdfc0700a0428000b142800077
:101610008100d1000080d3000001be00e08c2000da
:10162000640607000000eb000080fa0000000600de
:101630000a00fa00000f78001107980022079800ae
:101640003307980044079800f04280000000e00053
:1016500008003200f54280004e0290002e019000fa
:10166000be0190009e0090001e0078000500010061
:1016700001003700100020000080fa000000060082
:101680000000fe006022b8000300e000a10032006c
:10169000c80bde009f003a00573e2000871f7800ed
:1016a0003200f800889fbe008a9fbe008c9fbe005b
:1016b0000178a30006003a0004d8a300020032001b
:1016c0006147af000160a20004c0a7000160a00054
:1016d0003b0024002d00200004f0a0000c0020009e
:1016e0000c00e0000600320004f0a1000b00240012
:1016f000e8cf4000020032004d0020001b00240013
:101700000600fa000d06d0008c8747008e03780093
:101710008b1b7800809bbe000f0478008004eb00d8
:10172000dcea2d000c28e10011003200c22add00a5
:10173000030032008502e90005800900b61f780029
:101740000600200096018800452020008600200029
:1017500061e7af00feff370002003700951fba00b7
:10176000b59fba000683e900fcff3100888457006a
:101770006808f8006828ef00550037008f057800ea
:101780000d06e9000c800900809feb000300e900d2
:1017900000800900b25d7800038155008001eb00f4
:1017a0008d00d0000f00a7008000eb000d00d100dd
:1017b00002000900b25b780080dbeb000000e9006a
:1017c000fbff3a00818757000d06e9000c800900f5
:1017d000c70f48003a003100c70578004705780078
:1017e0008d00450060864d00640354008903780035
:1017f00064034300e8835300070039003608e10022
:1018000036e0e100faff34003650e10036d8e1005e
:10181000f8ff31002a00370000002000a10f20004f
:101820006203470004f0a7003600be009101880063
:101830008d00d1008e0378000676200061e7af00ae
:10184000feff370002000900371b78003708bb0095
:101850003798bb008100e900fcff3a006a322100a2
:10186000feb097007fb897000100b8008a035000cf
:101870000a0020001a00a0000000eb001a00a700d8
:10188000feff370004a0a7000060fe003a19020026
:1018900000000000070b7800b109b000010b7800d0
:1018a00061e7a800000000000000000004b8a300e9
:1018b00061e7af00feff3a00561902000000000089
:1018c000e20347000000eb00979b4600971b48008f
:1018d0000d00d1000080460080815100b2ff310030
:1018e00080814100a5ff3a0000ff23006027b60079
:1018f0008027eb001e009000ae0090000080fa00f0
:101900004f06be004f05be004f04be003200f90076
:101910008027eb006828ef0000000600200220006e
:101920009701070000942000d04a8800c092200050
:10193000e04a8800000006000000fa000080eb008a
:1019400060198800cc22ef00f00f290040168800b3
:1019500000002400a016880000002f0080168800d8
:1019600000202000e0168800f0c32000c016880088
:101970000008200020178800f007200000178800ca
:10198000ec22ef00c007200040178800400c200028
:10199000a017880080242000801788000001eb0039
:1019a00080072000a10920003374200080497800be
:1019b0008149780082497800103a8000000178005f
:1019c0000200a000600420007105200023742000a4
:1019d0008049780081497800824978000000000041
:1019e000103a8000610060000000e000fcff3a0057
:1019f0004427ef001200200080072000a1092000ea
:101a00003374200080497800814978008249780049
:101a1000103a8000000178000200a000600420005d
:101a200071052000237420008049780081497800e6
:101a30008249780000000000103a800061006000d8
:101a40000000e000fcff3a00103a80004c00de008d
:101a5000674060000080fb0065006000e10f5000ff
:101a600006003a0000000000113a80000002200049
:101a7000008060000000e000fbff32000040220018
:101a8000410f2000c0428800d1428800004022005f
:101a9000410f2000c0428800d142880000e82300a6
:101aa00001002000a0428800b1428800000120000f
:101ab000604388009a0407002002200030010700dc
:101ac00000942000d04a8800c0922000e04a88009c
:101ad000c0922000e0428800f136800000fc2f0018
:101ae000008060003000b300f036880021358000af
:101af00000fc2f0080806000d002200001007000f8
:101b00002035880000402200410f20000080fa00ac
:101b100000000600ee874700889fbe008a9fbe0037
:101b20008c9fbe008e1f7800000678000d402000bc
:101b30004e4380006828ef000020200001002000b4
:101b4000b0b79f00c1b79f007a805700001802000d
:101b500000000000d0b79f00e1b79f00f2b79f00e0
:101b600083bf9f00890020000004eb002e00370097
:101b7000cfea9700e9cf42000500360010002000b0
:101b80001a0f0200000000000000eb004b003700bd
:101b90007fb597008fbd97000d00e9007fb39700d8
:101ba00086006000050032008000eb000a00700033
:101bb0008b80700061054000e08548006168b800d6
:101bc0005fb19700efb197000000410081804900ac
:101bd000d0b79f00e1b79f008a0f50008b8f58004d
:101be000100039004020200001002000bfb2970003
:101bf000808f5200300031007a80570000180200b8
:101c000000000000d0b79f00e1b79f00f2b79f002f
:101c100083bf9f00800f5500818f5d00010036005b
:101c20000804e9000804e8001c007800800f540054
:101c3000cfff3900000ee8005fb09700efb09700cb
:101c4000b4170200000000000000e00016003a0097
:101c50005fb29700efb2970042002000030020001f
:101c6000c0202000010020003c1502000000000000
:101c70000000e0000c003a00e07b20000007470075
:101c80004e4388005fb09700efb09700ee16020059
:101c9000000000000000eb001a0f0200000000002e
:101ca00010002000050037008904e900deff3a003b
:101cb00010002000010037000000eb004f07780003
:101cc0004f06be004f05be004f04be00ef00b1003e
:101cd000000006001600fa00889fbe008a9fbe0022
:101ce0008c1f7800820478000305780004047800d3
:101cf00082bf2a002300200082b79f0093b79f0075
:101d00000fb197009fb1970092bf9f00a3bf9f00a4
:101d10000800e00001003a007c8457000006eb0058
:101d20008005eb00880278000b0278008a017800b9
:101d3000090178005c100200000000000000e000d3
:101d4000360032001802be0082002000030020008e
:101d500000212000010020003c15020000000000ce
:101d60000000e0001e003a001802be001fb89700f5
:101d7000afb89700e00f5000e08f58000f0032001e
:101d80000400be001fb99700afb99700820f520040
:101d9000838f5a00090039000b00e0001c003a0054
:101da000284190009b0020000204e0000100350063
:101db0004b002000a8049000daff370082002000ca
:101dc0000300200040202000010020003c150200fc
:101dd000000000000000e0000f0032001c002000a6
:101de000e30f55000d003600280190000205550054
:101df000630555000a8544002400200005002000ea
:101e000038004200a8804a00e3044100c5ff3700c3
:101e1000ccff2f00010037000086eb000c0078009b
:101e20004f0678004f05be004f04be000080fa0048
:101e3000000006000a00fa00889fbe008a9fbe00cc
:101e40008c9fbe00300798004f079800a00020002c
:101e50000100200042190200000000000002be0044
:101e6000800578008080e8000100a100818747009c
:101e70004e0590008000eb0082212000030020002e
:101e80000a0078002414020000000000330037002c
:101e90000040eb00504798000a007800b0407800fe
:101ea00021479800b04078003147980010407800f2
:101eb0004047980063004500104f78004a4090006a
:101ec000104798002a409000e84f4000040032007c
:101ed000140020000004e00005003d000100370070
:101ee000840020003e0090000000e0001600320058
:101ef0001e067800e60645001e049000ae04900021
:101f00008002eb008c0178000d0178000800be0013
:101f10005c100200000000000000e0000a00320037
:101f2000f03d2000404388000003eb00d5ea2d007f
:101f30000002eb008c0178000d0178000800be0063
:101f4000f4100200000000001e007800808555009b
:101f5000e68555006600400000054500e68f550007
:101f6000cbff3e006828ef00ce0790004f06be0072
:101f70004f05be004f04be000080fa0000000600be
:101f8000889fbe008a1f7800000578008800200026
:101f90000900200010c0b3000a00e0000100340076
:101fa0000040eb00610060004500dd008800780023
:101fb0000150a1000104700009a0a00009c0a00008
:101fc00009f0a00070a7a8009580a9009560a9005d
:101fd0008560a9008580a90070a7a90004332100ad
:101fe0008001eb00000620000100200000017800c5
:101ff000e1862000c092200064180200000000006a
:102000000002eb0023262100000220000100200036
:1020100000017800c19020000094200064180200a4
:1020200000000000b0002000e0498800c00020004f
:10203000804a8800e0782100d0498800803d210056
:10204000704a88000af0a7000a05ea004a118800d1
:10205000081188001911880008f0a00008118800f4
:102060001911880011002000efc0600000cfb300fc
:10207000a20a200012417800004061000140700077
:10208000aae0b70021002000400020008008dd0009
:10209000a9c0bf006f40600001407000a9e0b70018
:1020a0004a190200000000004f0578004f04be00ee
:1020b000000006006022b800889fbe008a9fbe0014
:1020c0003200f8000500e0004220af008f027800e7
:1020d000e48242000178a30006003a0004d8a3007d
:1020e000020032006147af000160a20004c0a700f7
:1020f0000160a000910188008000eb0061e7af0063
:10210000feff3700030037000080e8004200af0008
:102110003220ec008301e90029003900821a78009e
:10212000d1002000f6ff2f00f70f20003243780087
:102130008301e90005003900b24878008301e90015
:1021400003003900b2437800020037000430a000d9
:102150000420a0001004ba009084ba00889abe003f
:10216000869abe00e30f62000b0032000683ea008d
:1021700087c3ea0008056300898563000400a7009f
:102180000a03be0008057300898573000410a700c8
:102190000a03be006044b8000803530089835b0053
:1021a000ec0f6200030032008003eb000430a70054
:1021b000f60fb200ea82520087007300d2ff3200ad
:1021c0009601800086227800802278000100780045
:1021d0003200f9004f05be004f04be0000000600ab
:1021e0000000fe006022b8000178a30006003a005b
:1021f00004d8a300020032006147af000160a200d2
:1022000004c0a7000160a000809fbe00829fbe00a6
:102210003200f800910188000300e0002c00320039
:1022200067002000e39f5300060020000600e00046
:1022300004003200f7bf9f000010a70004f0a000c8
:102240000010a1000000a10061e7af00feff370011
:10225000ffbb97008080eb0090c0ba00901fba00cf
:10226000cf9f60000080e8006638e10005003a007a
:1022700090c0ba00cf9f60009000ba00cf9f60006e
:102280000080e8000000e0004220af003220ec00b7
:1022900004f0a700e383530004f0a100cf8fea000d
:1022a00004003a0007014100878151000700360011
:1022b000e7ff370000d9eb008301e900030032009b
:1022c0008703e900fbff3a00e1ff37008f87e90051
:1022d0003200f9004f01be004f00be00440b040065
:1022e0000000000060a8bf003a003200cfb897009d
:1022f000cd08de0037003a004460af0035003a00f8
:102300006208ac0033003a003600f8000000f80024
:102310000000f8003400f800849fbe00869fbe00d5
:1023200055438000c64a8000374b80009502130059
:1023300037831800978318004260ef00048620005e
:1023400084017800148210001b00320062004200f9
:102350003028e10030b0e10030b8e100f8ff330090
:10236000849fbe00869fbe00b0821000308318009c
:10237000b08318004220af0094097800548a4200cc
:10238000540a4b00548a4b00061d21000700200010
:10239000869fbe00b01f7800b01f78000040060086
:1023a0004260ef004f03be004f02be00100a9800cb
:1023b0008000eb00e2ff37004f03be004f02be007b
:1023c0003400f9000000f9000000f9003600f900bf
:1023d0006208a9004f01be00cf007800004006004f
:1023e000889fbe00800478000202be008081eb005e
:1023f0000900e00030003200890890004808de0043
:102400002d003a0008222000f78f50000900360006
:102410000823200010052000808f500005003600a2
:10242000082b200066004000808f500001003e0015
:10243000082520000401be00c0428000d142800077
:10244000b815020000000000c80190000000e00084
:102450000d003400400498001858a3000d0032000d
:102460001850a1001800e0000a003d0018f0a1007b
:102470001850a10018f0a0009800900001a0a00042
:1024800011049800030037000000ea00400498009f
:102490001850a0009908900001f0a000910c98003d
:1024a000990890000150a100910c980099089000a3
:1024b0000160a100910c9800030078004f04be0059
:1024c00000000600889fbe008a9fbe008c9fbe0051
:1024d0000004780001057800820478008305780004
:1024e0002322ab0001003a008580a800890f540028
:1024f000210032003e170200000000000006be006e
:102500000000eb00d00598008580ab00030032008e
:10251000e03c200012190200000000000881540075
:10252000880045000b0078006c14020000000000d9
:1025300000044400890f54000d0032003e170200d1
:10254000000000000c0150008d815800c042800046
:10255000d14280004e0add004200de000000720021
:10256000c208de00800f5100818f5900e6ff39005c
:1025700020262100d0059800904a80000020a0006d
:10258000904a8800080078004f06be004f05be0044
:102590004f04be00000006008002eb000f00a70001
:1025a0008082eb00e08140004220af000000050087
:1025b000851f7800801fe800030090000200e10002
:1025c0004200af000200780023029000b3039000a5
:1025d0004303900007034300cf00e9001a003200d4
:1025e000840353000038e1004200af00e0035000d4
:1025f000030032008702e90005800900b458780022
:102600000620e1004200af00430290008703500023
:10261000030032008702e90005800900b458780001
:10262000808050004f00e00002003200930910004b
:10263000a4019800e30390000700e0004220ae00f0
:102640000700010000000600000242000620e10031
:102650004200af000702520000017800f1ff37008e
:10266000889fbe008a9fbe008c9fbe000004780039
:10267000010578008204780083057800890f5400f2
:102680001d0032003e170200000000000006be00e0
:102690000000eb00e00598008560ab00030032000d
:1026a000403320001219020000000000088154008d
:1026b000080045008b007800d012020000000000e6
:1026c00000044400888f5400090032003e170200c5
:1026d000000000000c0150008d815800c0428000b5
:1026e000d1428000800f5100818f5900eaff3900ec
:1026f00000332100e0059800f04980000030a00080
:10270000f0498800080078004f06be004f05be0063
:102710004f04be0000000600801feb00811f780000
:10272000801f7800861f7800851f7800841f78003e
:1027300080180200000000003e17020000000000a8
:102740008003eb004f825300cf825b004f835b001e
:10275000cf01780014003200078620009719780016
:102760000b00330084194000859948008619490000
:102770008499be0086197800cf197800cf197800a7
:102780000000280080197800f48b5100000006003a
:1027900084195000859958008619590002000900d3
:1027a0008019eb00f4ff3700e487570000000600b3
:1027b000889fbe008a1f78000004be0002057800d2
:1027c0000800370008007800c4180200000000006c
:1027d0000000e000030032000808900044180200e6
:1027e000000000001800e0000f0032003e17020059
:1027f0000000000039015000a9815800ba0f5100b3
:10280000aa8f5900efff3600070037003e1702007d
:102810000000000039015000a9815800ba0f510092
:10282000aa8f590004003e002302ab00f7ff3200dc
:1028300010002000010037000000eb004f05780079
:102840004f04be00000006000400e000210032003a
:10285000800278006208b8003600200011000900ec
:102860004688d800000141000380b0000000eb0062
:10287000970180009301880061e7af00feff3700f9
:102880000100e0000c0032000402e9000200a70091
:1028900006003700d25aba000402e9000c003900e1
:1028a00002003700b25aba00925aba00c2daba002d
:1028b0000281e80032a0b40063025200f9ff310047
:1028c000620242000200330004800900b25aba00da
:1028d0009701880000000600e00140000200780037
:1028e00020003200c30390003303900013029000d5
:1028f0009302530006834300840353000028e10041
:102900004200ae0005007800800278000538e10042
:102910004200ae00870278008503e900020039001a
:1029200007800900315a78000620e1004200af001c
:102930004302900005035000030032008603e900c3
:1029400007800900315a78009309400094019800eb
:10295000d3039000808050000700e0004220ae00ca
:1029600007000100000006000000e0004220af0068
:1029700010000500881f7800829fbe0000047800c8
:102980003e17020000000000809fbe00f803900088
:102990000700e0000700320008007800e4805700dc
:1029a0006881570007000100e88757004f0478004e
:1029b00000000600100020001800e000faff3200be
:1029c0003e170200000000007fb99700efb99700a2
:1029d00002005000838058005fb99700cfb997007c
:1029e0000200e1000388e100f2ff34000000eb0088
:1029f000edff37000080ea008180ea0085002000ba
:102a00000632280087db2e0010003700b25a78000b
:102a1000b252780004006800840020008100d100d8
:102a20000080d3000200390006006800878068003b
:102a30008100d1000080d300020039000600680048
:102a4000878068000402e900f4ff3a00e281510047
:102a5000eeff3b00e28141000400320012406800ba
:102a60004400200003002000ecff37000080ea0053
:102a70008180ea00000006000400fa00881f780048
:102a80008a9fbe000003be00b0bf9f00c1bf9f0071
:102a9000020478000405be000000eb00e00f5300c4
:102aa000e08f5b000b003a000f0037006a80570090
:102ab0000018020000000000800f5500818f5d00ab
:102ac00003003900820f5500838f5d000500390037
:102ad000640454000800e000f4ff3a000000eb003a
:102ae00001003700100020004f05be004f047800a1
:102af0000080fa00000006000000fe0061e7af0061
:102b0000feff3700003b8800474380006828ef0045
:102b1000013bb80061322100b709b00081005300c9
:102b20003a19020000000000313b88008000eb00f1
:102b3000373b880061e7a8000000000000000000ab
:102b40000200a60056190200000000008003eb00fe
:102b50000208a30061e7af00feff3a0061c7a900c9
:102b60000200a70056190200000000000000060045
:102b7000881f78000002eb00e00f5100e08f590041
:102b8000140032000004eb00e00f5100e08f590008
:102b900003003d0060011100e081190018002000d1
:102ba0000200400083804800421add00ce12de00a1
:102bb000850272004212dd000401be0046040200dc
:102bc000000000000002e9000800e00001003200ff
:102bd0000402ea00040078004f04780000000600b8
:102be0005e08000002000000000000005008000025
:102bf0000400000000000000540900000200000072
:102c00000000000056090000020000000000000063
:102c100064080000020000000000000066080000d8
:102c20000200000000000000680800000200000030
:102c3000000000005a09000002000000000000002f
:102c40005c0900000200000000000000000000001d
:102c5000a0c02100010020006a015000e08158005e
:102c60000a003200e8180200000000004800de0000
:102c7000c808dd0001007000d22c210000005100c6
:102c80004220ae00000005001000050000002000fa
:102c9000010020000160a000e81802000000000010
:102ca0004c01de00c409dd00030171000080ea0070
:102cb000f4ff200004006000f0ff37001100200046
:102cc0000f00a70001002000420920000700370084
:102cd000110020000f00a700010020000000e0000c
:102ce0004220af000000050042082000800990004b
:102cf0004818de004220ae0000000500431ade0046
:102d00000400a10004014100ef8161001218a50038
:102d10000080d200e08040001298ad000000060064
:102d20000000eb00c04a880000962000304b88006d
:102d30004011200050438800008620000000e00081
:102d4000020032006028ef006268ef0040002000bf
:102d5000f00888001aa1ef00210020008008dd00a3
:102d6000b1c0bf006f40600001407000b1e0b7002b
:102d70009760a8001fe1a80000000600889fbe0021
:102d80000004be00c0428800d1428800401fb0004d
:102d90000180b000823e20000300200046040200b3
:102da00000000000a0428800b142880000122a0002
:102db000710020000800400089804800022424009f
:102dc000f300200046040200000000006043880079
:102dd0004f04be00000006000000fe0061e7af00e7
:102de000feff370092018000910188000308bb00bc
:102df000920188000000880001008800200424005f
:102e000060c7a80060c7ae001084b2000001eb00ec
:102e1000513e20007e1502000000000061e7af0077
:102e2000feff370061c7a90000000600889fbe00b2
:102e30008a9fbe000004be003e1702000000000092
:102e40000005be008001eb000300e0004220ae0060
:102e50000140fe003e170200000000000a02500080
:102e60008b8258000401540085815c00f6ff31001c
:102e70004f05be004f04be0000000600574380000f
:102e80000003eb0065962000c04a80001502780020
:102e900017001000b4001b0034011b0094011b003c
:102ea000640252001520e100f7ff3a0044082000b8
:102eb0002400b00014b0a6000000060060762100d7
:102ec0001219020000000000ecff3700811f78009b
:102ed000829fbe008001eb00314b8000688168005a
:102ee0003119e80031994900118949006401510004
:102ef000324b8800410820002100b00011b0a10031
:102f0000211721000100e0004220ae000140010035
:102f10004f01be00cf00780000400600881f7800f7
:102f20000004780018017800880078000000eb00a9
:102f3000d012020000000000180890000040a1001c
:102f4000100c9800180890000050a100100c980078
:102f5000180890000060a100100c980010002000dc
:102f60004f04780000000600920180009101880063
:102f7000f33f20008380ea00008060000082eb00c5
:102f800061e7af00feff370010c2ba00b000ba0020
:102f9000010262008480ea0004003a008381e900b3
:102fa000f9ff3100920188001000050092018800ad
:102fb00000000500831f7800821f7800801f7800c2
:102fc0003e17020000000000cf83e8006208ac005a
:102fd0001602800037027800a7027800cf1b40005d
:102fe000cf9b4800e01349000610a7006208a90023
:102ff00047005200d7805a0000000600ffffff0084
:1030000030027800a0027800970180006418420026
:1030100060884a00950188000483e800e0824a0045
:1030200061e7af00feff37001400ba009480ba00d9
:10303000950188001601ba009681ba0097018800b0
:1030400000000600000000000202e900050039004f
:10305000810170000300a60003003700048009000e
:1030600031587800000006008201d1008301e90098
:103070000300390003800900311878000200a7001e
:103080003158780000000600c800de000d00320054
:10309000120280004811dd004460af000270a00001
:1030a000cf1f71006200b8004001b0000210200084
:1030b00083e0af0002004000e818020000000000ba
:1030c000809fbe00000006008002eb00050878002b
:1030d00032009800410098001100980021009800eb
:1030e0005300980064009800750098008080eb0001
:1030f000010898000100280011089800000006004f
:10310000018620000100370082007800110178005c
:103110000200e00004003200800f5100faff3a0084
:1031200090087800100005000000050061e7af007e
:10313000feff370061c7a90000a0ef0000a0ef006c
:103140009101800032a0ef00e2ff2f000209bb00d6
:103150009101880000000600b0417800b1c1510023
:1031600003003a000201e900fbff31000000050006
:103170000080eb004200af001000050000000600d8
:10318000410920000f00a70041082000000990001d
:10319000c311de006701610061c079000200de003a
:1031a0006100600000000600a08620000000e00032
:1031b00004003200400920002000b00010b0a4003c
:1031c0004200ae000000050010000500ffffff00f8
:1031d000920180009101880061e7af00feff370097
:1031e0009080ba001000ba0092018800000006002a
:1031f000e09320001040a1001050a1001060a10039
:1032000010f0a00020a2a80000000600c042880024
:10321000d1428800be160200000000009016040093
:103220000000000011028000c808dd004460af000b
:103230000170a000cf9f7000004001000201e90072
:1032400002003900028009000158780000000600e1
:103250000081eb008081eb0000942000b414040096
:1032600000000000001180004500de0061006000e9
:103270000000060000082000cf1f70001002800030
:10328000004006006300b8008100d1000080d30038
:10329000000006009560a8009580a80000000600c8
:1032a0009560a9009580a900000006004800dd0097
:1032b000cf1f700000400600ffffff00ffffff0070
:1032c000ffffff00ffffff00ffffff00ffffff000a
:1032d000ffffff00ffffff00ffffff00ffffff00fa
:1032e000ffffff00ffffff00ffffff00ffffff00ea
:1032f000ffffff00ffffff00ffffff00ffffff00da
:020000040000fa
:10381000ffffff00ffcd12001c420400000000006b
:020000040000fa
:10382000a847040000000000a847040000000000b2
:10383000a847040000000000a847040000000000a2
:10384000a847040000000000a84704000000000092
:10385000a847040000000000b24604000000000079
:10386000a847040000000000a84704000000000072
:103870000e47040000000000ca46040000000000db
:10388000a847040000000000a84704000000000052
:10389000fc4204000000000070430400000000002f
:1038a000a847040000000000a84704000000000032
:1038b000a847040000000000a84704000000000022
:1038c000a847040000000000a84704000000000012
:1038d000a847040000000000a84704000000000002
:1038e000a847040000000000a847040000000000f2
:1038f0009047040000000000a847040000000000fa
:10390000a8470400000000009e44040000000000de
:10391000a847040000000000a847040000000000c1
:10392000a847040000000000a847040000000000b1
:10393000a847040000000000a847040000000000a1
:10394000a847040000000000a84704000000000091
:10395000a847040000000000a84704000000000081
:10396000a847040000000000a84704000000000071
:10397000a847040000000000a84704000000000061
:10398000a847040000000000a84704000000000051
:10399000a847040000000000a84704000000000041
:1039a000e045040000000000a847040000000000fb
:1039b000a847040000000000a84704000000000021
:1039c000ca45040000000000d443040000000000c9
:1039d0006845040000000000a84704000000000043
:1039e000a847040000000000a847040000000000f1
:1039f000f6450400000000005e46040000000000e0
:103a0000a847040000000000a847040000000000d0
:103a1000a847040000000000a847040000000000c0
:083a2000a847040000000000ab
:020000040000fa
:103a2800ffff000064690000722000002575000097
:103a380020680000616e0000647300000d00000043
:103a480064690000722000002575000020610000f4
:103a5800757400006f0d00000064000069720000ba
:103a680020250000752000006375000072720000b8
:103a7800656e00007420000025780000202d0000ed
:103a88003e2000006e6500007720000025780000c9
:103a98000d000000436f00006d200000342000007e
:103aa800637000006f700000790d00000043000093
:103ab8006f6d000020390000206300006f70000067
:103ac800790d0000004300006f6d000020350000f4
:103ad800206300006f700000790d000000430000b3
:103ae8006f6d000020380000206300006f70000038
:103af800790d0000003f0000202500006c750000d3
:103b08002032000020000000257500000d00000094
:103b18003f200000256c00007520000033200000c5
:103b2800003f0000202500006c75000020310000d7
:103b38002000000070610000676500002575000026
:103b48002e620000257500002e620000636f0000e1
:103b58003d25000075ff0000ffff00000025000064
:103b680073000000706100006765000025750000a3
:103b78002e620000257500002e6600006f6e0000a2
:103b8800743d000025750000ffff0000ff000000e5
:103b98007061000067650000257500002e62000056
:103ba800257500002e700000636f00003d250000a1
:103bb80075ff0000ffff0000007000006167000053
:103bc80065250000752e000074250000752e000084
:103bd800626300006f3d000025750000ffff0000d4
:103be800ff00000070610000676500002575000097
:103bf8002e620000257500002e7000006963000029
:103c08003d25000075ff0000ffff00000070000068
:103c18006167000065250000752e0000742500000e
:103c2800752e000070690000633d000025750000d6
:103c3800ffff0000ff0000007061000067650000e2
:103c4800257500002e740000257500002e66000002
:103c58006f6e0000743d000025750000ffff000036
:103c6800ff00000070610000676500002575000016
:103c78002e740000257500002e700000636f000090
:103c88003d25000075ff0000ffff000000700000e8
:103c98006167000065310000302e000062250000d9
:103ca800752e000074780000743d00002225000085
:103cb80075220000ffff0000ff0000007061000097
:103cc80067650000313000002e74000031370000b5
:103cd8002e700000696300003d39000036ff0000c7
:103ce800ffff000000700000616700006531000000
:103cf800302e000074310000372e0000706900007b
:103d0800633d000039370000ffff0000ff0000009e
:103d18007061000067650000313000002e740000fb
:103d2800313700002e700000696300003d39000043
:103d380034ff0000ffff0000007000006167000012
:103d480065310000302e000074310000372e00006d
:103d580070690000633d000039350000ffff000076
:103d6800ff00000074310000372e00007069000069
:103d7800633d000039340000ffff0000ff00000031
:103d880074310000372e000070690000633d0000a8
:103d980039350000ffff0000ff00000070610000df
:103da80067650000257500002e740000342e0000a1
:103db80074780000743d0000222500007522000080
:103dc800ffff0000ff000000257300000d00000049
:103dd8007061000067650000313000002e7400003b
:103de800313200002e700000696300003d3500008c
:103df80036ff0000ffff0000007000006167000050
:103e080065310000302e000074310000322e0000b1
:103e180070690000633d000035370000ffff0000b7
:103e2800ff0000007061000067650000313000008d
:103e38002e740000313300002e700000696300000a
:103e48003d35000036ff0000ffff00000070000055
:103e58006167000065310000302e000074310000f9
:103e6800332e000070690000633d00003537000004
:103e7800ffff0000ff0000004c63000064460000e4
:103e88006c610000672000006f780000253000009a
:103e9800345800002c2000004e65000077450000d3
:103ea800766500006e7400004c630000642000001a
:103eb8006f78000025300000345800000d00000025
:103ec8007061000067650000313100002e74000049
:103ed800312e000070690000633d0000333500009a
:103ee800ffff0000ff000000706100006765000030
:103ef800313100002e740000312e0000706900007e
:103f0800633d000033340000ffff0000ff000000a5
:103f18007061000067650000313100002e740000f8
:103f2800312e000070690000633d0000333300004b
:103f3800ffff0000ff000000eee50000e9f30000cd
:103f4800f0f20000e1f70000eeef0000f3f40000eb
:103f5800f8000000eeef0000f2ed0000e1000000c4
:103f6800f7ee0000e9ed0000e1ee0000e9e50000f1
:103f780000f00000eff60000e1f2000000f00000a1
:103f8800f5f30000eb000000e2f50000f20000008d
:103f9800f2eb0000ee0000007061000067650000b1
:103fa800313100002e740000312e000074780000ba
:103fb800743d000022e10000f5f00000f45c000010
:103fc80072250000735c0000722500007320000059
:103fd800f32e0000ee2e0000202500006c75000076
:103fe8005c720000dac10000d2c50000c7c9000039
:103ff800d3d40000d2c90000d2cf0000d7c100003e
:10400800cecf00005c720000e2ef0000f33a00003f
:10401800202000002575000020db0000d42e0000c1
:1040280022ff0000ffff0000007000006167000031
:1040380065310000312e0000743200002e7000003f
:10404800696300003d33000035ff0000ffff0000fa
:10405800007000006167000065310000312e00002b
:10406800743200002e700000696300003d330000c8
:1040780034ff0000ffff00000070000061670000cf
:1040880065310000312e0000743200002e700000ef
:10409800696300003d33000033ff0000ffff0000ac
:1040a800007000006167000065310000312e0000db
:1040b800743200002e740000787400003d22000065
:1040c800e2ef0000f3200000d0cf0000c4d20000cf
:1040d800cfc20000cecf00003a5c000072d70000cb
:1040e80020d00000d5d30000cbc50000202d000053
:1040f80020250000755c000072d7000020d0000069
:10410800cfd60000c1d20000c52000002d2000003d
:10411800257500005c720000d7cf000020d7000092
:10412800cec90000cdc10000cec90000c9200000e2
:104138002d200000257500005c720000d7200000cb
:10414800cec50000c9d30000d0d20000c1d70000fe
:10415800cecf0000d3d40000c92000002d200000dd
:104168002575000022ff0000ffff0000007000001e
:104178006167000065310000312e000074300000d6
:104188002e700000696300003d32000038ff000017
:10419800ffff00000070000061670000653100004b
:1041a800312e0000743000002e7400007874000076
:1041b8003d220000e1f70000f4ef0000ede100000f
:1041c800f4e90000ebe1000020f70000ebec000050
:1041d800e0fe0000e5ee0000e1220000ffff000025
:1041e800ff000000706100006765000031310000c9
:1041f8002e740000302e000070690000633d00003e
:1042080033310000ffff0000ff0000007061000074
:1042180067650000313100002e740000302e000068
:1042280074780000743d000022f00000f5f30000ef
:10423800eb200000fae10000e2ec0000efeb0000e8
:10424800e9f20000eff70000e1ee000022ff0000b5
:10425800ffff00000070000061670000653100008a
:10426800312e0000743000002e70000069630000d9
:104278003d33000031ff0000ffff000074300000f4
:104288002e740000787400003d220000f2e5000062
:10429800f6e90000ed200000f2e10000e2ef000086
:1042a800f4f9000020f20000f5fe0000eeef000037
:1042b800ea220000ffff0000ff000000706100001c
:1042c80067650000313200002e740000322e0000b5
:1042d80074780000743d000022250000732200005d
:1042e800ffff0000ff00000070610000676500002c
:1042f800313200002e740000312e00007478000066
:10430800743d0000222500006c75000022ff0000ab
:10431800ffff0000007000006167000065310000c9
:10432800322e0000743100002e700000636f000010
:104338003d25000075ff0000ffff00000070000031
:104348006167000065310000322e00007430000003
:104358002e700000696300003d32000038ff000045
:10436800ffff000000700000616700006531000079
:10437800322e0000743000002e70000069630000c7
:104388003d33000031ff0000ffff00000070000017
:104398006167000065310000322e000074300000b3
:1043a8002e700000696300003d33000030ff0000fc
:1043b800ffff000000700000616700006531000029
:1043c800322e0000743000002e7400007874000053
:1043d8003d220000f2e50000f6e90000ed200000b3
:1043e800f2e10000e2ef0000f4f9000020f2000022
:1043f800f5fe0000eeef0000ea220000ffff0000db
:10440800ff000000706100006765000031320000a5
:104418002e740000302e000074780000743d0000f7
:1044280022fa0000e1e40000e5f20000f6eb0000eb
:10443800e1200000f0f50000f3eb0000e1200000af
:104448002575000020f30000e5eb0000f5ee000004
:10445800e4220000ffff0000ff0000007061000080
:1044680067650000313200002e740000302e000015
:1044780074780000743d000022f00000f5f300009d
:10448800eb200000fae10000e2ec0000efeb000096
:10449800e9f20000eff70000e1ee000022ff000063
:1044a800ffff000000700000616700006531000038
:1044b800322e000074310000312e000070690000b7
:1044c800633d000035370000ffff0000ff000000db
:1044d8007061000067650000313200002e74000032
:1044e800313100002e700000696300003d35000086
:1044f80036ff0000ffff0000007000006167000049
:1045080065310000322e000074310000322e0000a8
:1045180070690000633d000035370000ffff0000b0
:10452800ff00000070610000676500003132000084
:104538002e740000313200002e7000006963000004
:104548003d35000036ff0000ffff0000007000004e
:104558006167000065310000322e000074310000f0
:10456800332e000070690000633d000035370000fd
:10457800ffff0000ff000000706100006765000099
:10458800313200002e740000313300002e7000001c
:10459800696300003d35000036ff0000ffff0000a2
:1045a800007000006167000065310000322e0000d5
:1045b80074310000342e000070690000633d000073
:1045c80035370000ffff0000ff00000070610000a9
:1045d80067650000313200002e740000313400009d
:1045e8002e700000696300003d35000036ff0000b2
:1045f800ffff0000007000006167000065310000e7
:10460800322e000074310000352e00007069000061
:10461800633d000035370000ffff0000ff00000089
:104628007061000067650000313200002e740000e0
:10463800313500002e700000696300003d35000030
:1046480036ff0000ffff00000070000061670000f7
:1046580065310000322e000074310000362e000053
:1046680070690000633d000035370000ffff00005f
:10467800ff00000070610000676500003132000033
:104688002e740000313600002e70000069630000af
:104698003d35000036ff0000ffff000000700000fd
:1046a8006167000065310000322e0000743100009f
:1046b800372e000070690000633d000035370000a8
:1046c800ffff0000ff000000706100006765000048
:1046d800313200002e740000313700002e700000c7
:1046e800696300003d35000036ff0000ffff000051
:1046f800007000006167000065310000322e000084
:1047080074310000302e000070690000633d000025
:1047180035360000ffff0000ff0000007061000058
:1047280067650000313200002e740000313000004f
:104738002e700000696300003d35000037ff00005f
:10474800ffff000000700000616700006531000095
:10475800342e0000743000002e70000069630000e1
:104768003d33000031ff0000ffff00000070000033
:104778006167000065310000342e000074300000cd
:104788002e700000696300003d32000038ff000011
:10479800ffff000000700000616700006531000045
:1047a800342e0000743000002e7000006963000091
:1047b8003d33000030ff0000ffff000000700000e4
:1047c8006167000065310000342e0000743000007d
:1047d8002e740000787400003d220000e1f700000c
:1047e800f4ef0000ede10000f4e90000ebe1000067
:1047f80020f70000ebec0000e0fe0000e5ee000012
:10480800e1220000ffff0000ff00000070610000cf
:1048180067650000313400002e740000302e00005f
:1048280074780000743d000022f00000f5f30000e9
:10483800eb200000fae10000e2ec0000efeb0000e2
:10484800e9f20000eff70000e1ee000022ff0000af
:10485800ffff000000700000616700006531000084
:10486800342e0000743000002e74000078740000ac
:104878003d220000f2e50000f6e90000ed2000000e
:10488800f2e10000e2ef0000f4f9000020f200007d
:10489800f5fe0000eeef0000ea220000ffff000036
:1048a800ff000000706100006765000031340000ff
:1048b8002e740000302e000070690000633d000077
:1048c80032390000ffff0000ff00000070610000a7
:1048d80067650000313400002e740000302e00009f
:1048e80074780000743d000022ee0000e5f400003a
:1048f80020e40000e1ee0000eef90000e8220000ec
:10490800ffff0000ff000000706100006765000005
:10491800313600002e740000302e0000706900004f
:10492800633d00003130000035ff0000ffff00004c
:10493800007000006167000065310000362e00003d
:10494800743000002e700000696300003d310000e3
:1049580030360000ffff0000ff000000706100001b
:1049680067650000313600002e740000302e00000c
:1049780070690000633d00003130000034ff000022
:10498800ffff000000700000616700006531000053
:10499800362e0000743000002e7400007874000079
:1049a8003d220000f3f00000f35c000072250000d7
:1049b800735c00007225000073200000f32e0000d5
:1049c800ee2e0000202500006c7500005c720000cf
:1049d800dac10000d2c50000c7c90000d3d4000066
:1049e800d2c90000d2cf0000d7c10000cecf00004e
:1049f8005c720000e9f00000e43a000020200000aa
:104a08002575000020db0000d42e000022ff0000e6
:104a1800ffff0000007000006167000065310000c2
:104a2800362e0000743100002e700000696300000b
:104a38003d31000030350000ffff0000ff0000009e
:104a48007061000067650000313600002e740000b8
:104a5800312e000070690000633d00003130000015
:104a680036ff0000ffff00000070000061670000d3
:104a780065310000362e0000743100002e700000f1
:104a8800696300003d31000030340000ffff000082
:104a9800ff0000007061000067650000313600000b
:104aa8002e740000312e000074780000743d000060
:104ab80022e90000f0e4000020d00000cfc400008c
:104ac800d2cf0000c2ce0000cf3a00005c720000d6
:104ad800d7200000d0cf0000d6c10000d2c500000a
:104ae800202d000020250000755c000072d7000012
:104af800cf200000d7ce0000c9cd0000c1ce0000f5
:104b0800c9c90000202d000020250000755c0000a8
:104b180072d7000020ce0000c5c90000d3d0000025
:104b2800d2c10000d7ce0000cfd30000d4c9000006
:104b3800202d00002025000075220000ffff000046
:104b4800ff00000070610000676500003137000059
:104b58002e740000322e000074780000743d0000ae
:104b68002225000073220000ffff0000ff00000064
:104b78007061000067650000313700002e74000086
:104b8800312e000074780000743d000022250000da
:104b98006c75000022ff0000ffff0000007000009d
:104ba8006167000065310000372e00007431000095
:104bb8002e700000636f00003d25000075ff0000a7
:104bc800ffff000000700000616700006531000011
:104bd800372e0000743000002e700000696300005a
:104be8003d32000038ff0000ffff000000700000a9
:104bf8006167000065310000372e00007430000046
:104c08002e700000696300003d33000031ff000092
:104c1800ffff0000007000006167000065310000c0
:104c2800372e0000743000002e7000006963000009
:104c38003d33000030ff0000ffff0000007000005f
:104c48006167000065310000372e000074310000f4
:104c5800312e000070690000633d00003537000008
:104c6800ffff0000ff0000007061000067650000a2
:104c7800313700002e740000313100002e70000022
:104c8800696300003d35000036ff0000ffff0000ab
:104c9800007000006167000065310000372e0000d9
:104ca80074310000322e000070690000633d00007e
:104cb80035370000ffff0000ff00000070610000b2
:104cc80067650000313700002e74000031320000a3
:104cd8002e700000696300003d35000036ff0000bb
:104ce800ffff0000007000006167000065310000f0
:104cf800372e000074310000332e00007069000068
:104d0800633d000035370000ffff0000ff00000092
:104d18007061000067650000313700002e740000e4
:104d2800313300002e700000696300003d3500003b
:104d380036ff0000ffff0000007000006167000000
:104d480065310000372e000074310000342e000059
:104d580070690000633d000035370000ffff000068
:104d6800ff00000070610000676500003137000037
:104d78002e740000313400002e70000069630000ba
:104d88003d35000036ff0000ffff00000070000006
:104d98006167000065310000372e000074310000a3
:104da800352e000070690000633d000035370000b3
:104db800ffff0000ff000000706100006765000051
:104dc800313700002e740000313500002e700000cd
:104dd800696300003d35000036ff0000ffff00005a
:104de800007000006167000065310000372e000088
:104df80074310000362e000070690000633d000029
:104e080035370000ffff0000ff0000007061000060
:104e180067650000313700002e740000313600004d
:104e28002e700000696300003d35000036ff000069
:104e3800ffff00000070000061670000653100009e
:104e4800372e000074310000372e00007069000012
:104e5800633d000035370000ffff0000ff00000041
:104e68007061000067650000313700002e74000093
:104e7800313700002e700000696300003d350000e6
:104e880036ff0000ffff00000070000061670000af
:104e980065310000372e000074310000302e00000c
:104ea80070690000633d000035360000ffff000018
:104eb800ff000000706100006765000031370000e6
:104ec8002e740000313000002e700000696300006d
:104ed8003d35000037ff0000ffff000000700000b4
:104ee8006167000065310000382e0000622500006f
:104ef800752e000070690000633d000025750000f4
:104f0800ffff0000ff0000007061000067650000ff
:104f1800313900002e620000257500002e74000053
:104f2800787400003d2200002575000022ff000073
:104f3800ffff00000070000061670000653100009d
:104f4800392e000062250000752e000070690000ef
:104f5800633d000025750000ffff0000ff00000012
:104f68007061000067650000257500002e62000072
:104f7800743300002e760000616c00003d300000a4
:104f8800ffff0000ff00000070610000676500007f
:104f9800257500002e620000743100002e76000096
:104fa800616c00003d310000ffff0000ff000000c1
:104fb8007061000067650000257500002e62000022
:104fc800743200002e760000616c00003d30000055
:104fd800ffff0000ff00000070610000676500002f
:104fe800257500002e740000313300002e74000077
:104ff800787400003d2200002575000022ff0000a3
:10500800ffff0000007600006973000020740000b4
:10501800322c000031ff0000ffff000000490000b3
:105028006e64000065780000426f00007320000085
:105038003d200000257500000d0000007061000093
:1050480067650000257500002e74000031340000eb
:105058002e740000787400003d22000025750000c1
:1050680022ff0000ffff00000070000061670000e1
:1050780065250000752e000074310000352e0000f3
:1050880074780000743d000022250000752200009d
:10509800ffff0000ff00000070610000676500006e
:1050a800257500002e740000362e0000747800006c
:1050b800743d000022e20000eff30000204e0000e3
:1050c8002025000075220000ffff0000ff000000ff
:1050d8007061000067650000257500002e740000ef
:1050e800362e000074780000743d000022e90000ac
:1050f800f0e40000204e000020250000752200008a
:10510800ffff0000ff0000007061000067650000fd
:10511800257500002e740000352e000074780000fc
:10512800743d000022f30000e5f20000e9ea000007
:10513800eef90000ea2000004e2000005858000058
:1051480058580000585800005858000058220000cd
:10515800ffff0000ff0000007061000067650000ad
:10516800257500002e740000302e000070690000c4
:10517800633d000035360000ffff0000ff0000001f
:105188007061000067650000257500002e7400003e
:10519800372e000074780000743d000022ee0000f5
:1051a800c5d4000020c40000c1ce0000ced9000044
:1051b800c8220000ffff0000ff000000706100002f
:1051c80067650000257500002e740000312e000070
:1051d80070690000633d000035360000ffff0000e5
:1051e800ff00000070610000676500002575000081
:1051f8002e740000382e000074780000743d000002
:1052080022ee0000c5d4000020c40000c1ce00007a
:10521800ced90000c8220000ffff0000ff000000f8
:105228007061000067650000257500002e7400009d
:10523800362e0000626300006f3d000025750000f7
:10524800ffff0000ff0000007061000067650000bc
:10525800257500002e740000322e000070690000d1
:10526800633d000035360000ffff0000ff0000002e
:105278007061000067650000257500002e7400004d
:10528800392e000074780000743d000022ee000002
:10529800c5d4000020c40000c1ce0000ced9000053
:1052a800c8220000ffff0000ff000000706100003e
:1052b80067650000257500002e740000332e00007d
:1052c80070690000633d000035360000ffff0000f4
:1052d800ff00000070610000676500002575000090
:1052e8002e740000313000002e7400007874000025
:1052f8003d220000eec50000d4200000c4c100001b
:10530800cece0000d9c8000022ff0000ffff000039
:10531800007000006167000065250000752e000020
:10532800743400002e700000696300003d350000f1
:1053380036ff0000ffff00000070000061670000fa
:1053480065250000752e000074310000312e000024
:1053580074780000743d000022ee0000c5d40000ff
:1053680020c40000c1ce0000ced90000c822000031
:10537800ffff0000ff00000070610000676500008b
:10538800257500002e740000352e0000747800008a
:10539800743d000022f30000e5f20000e9ea000095
:1053a800eef90000ea2000004e200000256c000005
:1053b80075220000ffff0000ff0000007061000080
:1053c80067650000257500002e740000372e000068
:1053d80074780000743d000022ee0000c5d400007f
:1053e80020d30000d7d10000dac9000022ff000056
:1053f800ffff0000007000006167000065250000e5
:10540800752e0000743000002e70000069630000e3
:105418003d35000037ff0000ffff0000007000006e
:105428006167000065250000752e000074370000d4
:105438002e740000787400003d220000f3d70000ad
:10544800d1da0000d8200000d7200000cecf00001d
:10545800d2cd0000c5220000ffff0000ff000000c1
:105468007061000067650000257500002e7400005b
:10547800382e000074780000743d000022ee000011
:10548800c9da0000cbcf0000c5220000ffff0000f2
:10549800ff000000706100006765000025750000ce
:1054a8002e740000382e000074780000743d00004f
:1054b80022f20000c5da0000c5d20000d7ce0000f5
:1054c800cfc5000022ff0000ffff000000700000b1
:1054d8006167000065250000752e0000743100002a
:1054e8002e700000696300003d35000037ff0000a2
:1054f800ffff0000007000006167000065250000e4
:10550800752e0000743800002e74000078740000b6
:105518003d220000efd30000cecf0000d7ce000020
:10552800cfc5000022ff0000ffff00000070000050
:105538006167000065250000752e000074390000c1
:105548002e740000787400003d220000e4d90000a9
:10555800cdcf0000d7c10000d1200000cbc1000092
:10556800cdc50000d2c100005c720000cec50000ad
:10557800c9d30000d0d20000c1d70000cec10000be
:1055880022ff0000ffff00000070000061670000bc
:1055980065250000752e0000743200002e70000092
:1055a800696300003d35000037ff0000ffff000081
:1055b800007000006167000065250000752e00007e
:1055c800743900002e740000787400003d22000039
:1055d800e4d90000cdcf0000d7c10000d1200000e1
:1055e800cbc10000cdc50000d2c100005c72000034
:1055f800c9d30000d0d20000c1d70000cec100003e
:1056080022ff0000ffff000000700000616700003b
:1056180065250000752e0000743900002e74000006
:10562800787400003d220000e9f0000031200000fd
:10563800cfc20000d2d90000d7220000ffff00002f
:10564800ff0000007061000067650000257500001c
:105658002e740000392e000074780000743d00009c
:1056680022e90000f031000020cb00002eda000013
:105678002e220000ffff0000ff0000007061000004
:1056880067650000257500002e740000392e0000a3
:1056980074780000743d000022e90000f031000039
:1056a80020c90000d3d00000d2c10000d7c5000037
:1056b800ce5c000072f40000e5ed0000f0e50000ab
:1056c800f2e10000f4f50000f2e1000020250000fe
:1056d8006443000022ff0000ffff0000007000008c
:1056e8006167000065250000752e00007431000018
:1056f800302e000074780000743d000022e900009c
:10570800f031000020cf0000c2d20000d9d700003d
:1057180022ff0000ffff000000700000616700002a
:1057280065250000752e000074310000302e000041
:1057380074780000743d000022e90000f031000098
:1057480020cb00002eda00002e220000ffff000010
:10575800ff0000007061000067650000257500000b
:105768002e740000332e000070690000633d0000b5
:1057780035370000ffff0000ff00000070610000e7
:1057880067650000257500002e74000031300000a8
:105798002e740000787400003d220000e9f000003b
:1057a80032200000c9d30000d0d20000c1d70000c9
:1057b800c5ce00005c720000f4e50000edf00000ca
:1057c800e5f20000e1f40000f5f20000e12000003d
:1057d8002564000043220000ffff0000ff000000d6
:1057e8007061000067650000257500002e740000d8
:1057f800313100002e620000636f00003d2500007b
:1058080075ff0000ffff00000070000061670000e6
:1058180065250000752e000074310000312e00004f
:10582800706300006f3d000025750000ffff000059
:10583800ff0000007061000067650000257500002a
:105848002e740000313100002e74000078740000be
:105858003d220000efc20000d2d90000d72000008e
:10586800c1cb0000d4c90000d7c10000d4cf0000cc
:10587800d2c1000022ff0000ffff000000700000fe
:105888006167000065250000752e00007431000076
:10589800312e000074780000743d000022eb0000f7
:1058a8002efa00002e200000c1cb0000d4c9000051
:1058b800d7c10000d4cf0000d2c1000022ff0000f1
:1058c800ffff000000700000616700006525000010
:1058d800752e0000743400002e700000696300000b
:1058e8003d35000037ff0000ffff0000007000009a
:1058f8006167000065250000752e00007431000006
:10590800312e000074780000743d000022e1000090
:10591800cbd40000c9d70000c1d40000cfd200000a
:1059280020ce0000cfd20000cdc1000022ff000031
:10593800ffff00000070000061670000652500009f
:10594800752e000074310000312e000074780000bc
:10595800743d000022f00000d5d30000cb200000e9
:10596800d0d20000cfdb0000c5cc000022ff000031
:10597800ffff00000070000061670000653800004c
:105988002e740000352e000074780000743d00006d
:105998002225000075220000ffff0000ff00000024
:1059a8007061000067650000382e00007431000047
:1059b800303000002e740000787400003d22000092
:1059c80025300000327500002e250000303200001e
:1059d800752e00002575000022ff0000ffff000063
:1059e8000070000061670000653800002e74000038
:1059f80031300000332e000074780000743d000040
:105a08002225000030320000753a000025300000e1
:105a1800327500003a25000030320000752200007f
:105a2800ffff0000ff0000007061000067650000d4
:105a3800382e0000743300002e74000078740000c3
:105a48003d220000f5d30000d4c10000cecf0000f5
:105a5800d7cc0000c5ce0000c1200000d3d700007d
:105a6800d1da0000d85c000072ce0000c1d000007e
:105a7800d2c10000d7cc0000c5ce0000c9c50000c7
:105a880020250000755c00007225000073200000ce
:105a9800f32e0000ee2e0000202500006c7500009b
:105aa8005c720000dac10000d2c50000c7c900005e
:105ab800d3d40000d2c90000d2cf0000d7c1000063
:105ac800cece0000cf200000e2ef0000f35c000023
:105ad8007225000075200000dbd400002e22000093
:105ae800ffff0000ff000000706100006765000014
:105af800382e0000743300002e7400007874000003
:105b08003d220000f0cf0000d4c50000d2d1000033
:105b1800cec1000020d30000d7d10000dad80000a1
:105b28005c720000d3200000d5d30000d4d200005e
:105b3800cfca0000d3d40000d7cf0000cd2000008a
:105b4800257500005c7200002573000020f300003a
:105b58002eee00002e200000256c000075220000ab
:105b6800ffff0000ff000000257500000070000026
:105b780061670000653800002e740000332e0000b5
:105b880074780000743d000022e10000f5f0000088
:105b9800f4200000e9da0000cdc50000cec5000001
:105ba800cec90000c5200000cfc20000d3d4000039
:105bb800c1ce0000cfd70000cbc900005c72000046
:105bc800eec10000d0d20000c1d70000ccc5000053
:105bd800cec90000c5200000257500005c720000d9
:105be8002573000020f300002eee00002e20000098
:105bf800256c0000755c000072250000732200000f
:105c0800ffff0000ff0000007061000067650000f2
:105c1800382e0000743300002e74000078740000e1
:105c28003d220000f3f00000f3200000e9da000054
:105c3800cdc50000cec50000cec90000c5200000bb
:105c4800cfc20000d3d40000c1ce0000cfd70000df
:105c5800cbc900005c720000eec10000d0d2000089
:105c6800c1d70000ccc50000cec90000c520000087
:105c7800257500005c7200002573000020f3000009
:105c88002eee00002e200000256c0000755c000040
:105c98007225000073220000ffff0000ff000000d3
:105ca8007061000067650000382e00007433000042
:105cb8002e740000787400003d220000e1f5000019
:105cc800f0f4000020c90000dacd0000c5ce0000c5
:105cd800c5ce0000c9c5000020d30000cfd3000006
:105ce800d4cf0000d1ce0000c9d100005c72000002
:105cf80022ff0000ffff0000007000006167000045
:105d0800653800002e740000332e000074780000ff
:105d1800743d000022f30000f0f3000020c90000e9
:105d2800dacd0000c5ce0000c5ce0000c9c5000010
:105d380020d30000cfd30000d4cf0000d1ce000084
:105d4800c9d100005c72000022ff0000ffff0000c4
:105d58000070000061670000653800002e740000c4
:105d6800332e000074780000743d00007433000086
:105d78002e740000787400002b22000025730000a8
:105d8800202500006c75000020ce0000c1d0000066
:105d9800d2c10000d7cc00002e20000025750000dd
:105da8005c72000022ff0000ffff0000007000008e
:105db80061670000653800002e740000332e000073
:105dc80074780000743d0000743300002e740000e5
:105dd800787400002b220000eec50000c9d3000033
:105de800d0d20000c1d70000cecf0000d3d400002d
:105df800c93a000020220000ffff0000ff00000059
:105e08007061000067650000382e000074330000e0
:105e18002e740000787400003d740000332e0000da
:105e280074780000742b000022f00000cfd400002a
:105e3800c5d20000d1200000d3d70000d1da00007d
:105e4800c92e00005c72000022ff0000ffff000066
:105e58000070000061670000653800002e740000c3
:105e6800332e000074780000743d00007433000085
:105e78002e740000787400002b2200005c72000071
:105e880022ff0000ffff00000070000061670000b3
:105e9800653800002e740000332e0000747800006e
:105ea800743d0000743300002e7400007874000004
:105eb8002b220000e2ef0000f32e00002022000059
:105ec800ffff0000ff000000706100006765000030
:105ed800382e0000743300002e740000787400001f
:105ee8003d740000332e000074780000742b00000d
:105ef80022e90000f0e400002e20000022ff00004c
:105f0800ffff0000007000006167000065380000b6
:105f18002e740000332e000074780000743d0000d9
:105f2800743300002e740000787400002b220000e7
:105f3800ecf3000020e90000f02e00002022000011
:105f4800ffff0000ff0000007061000067650000af
:105f5800382e0000743300002e740000787400009e
:105f68003d740000332e000074780000742b00008c
:105f780022ec0000f3200000c4d70000c5d20000c6
:105f8800c5ca00002e220000ffff0000ff0000002d
:105f98007061000067650000382e0000743300004f
:105fa8002e740000787400003d740000332e000049
:105fb80074780000742b000022ec0000f32000002d
